{
  "contractName": "Administrateur",
  "abi": [
    {
      "constant": true,
      "inputs": [
        {
          "internalType": "uint256",
          "name": "",
          "type": "uint256"
        }
      ],
      "name": "listRole",
      "outputs": [
        {
          "internalType": "string",
          "name": "",
          "type": "string"
        }
      ],
      "payable": false,
      "stateMutability": "view",
      "type": "function"
    },
    {
      "constant": false,
      "inputs": [
        {
          "internalType": "string",
          "name": "_idAdmin",
          "type": "string"
        },
        {
          "internalType": "string",
          "name": "_nomAdmin",
          "type": "string"
        },
        {
          "internalType": "string",
          "name": "_prenomAdmin",
          "type": "string"
        },
        {
          "internalType": "uint256",
          "name": "_numeroTel",
          "type": "uint256"
        },
        {
          "internalType": "string",
          "name": "_mailAdmin",
          "type": "string"
        },
        {
          "internalType": "string",
          "name": "_password",
          "type": "string"
        }
      ],
      "name": "initAdministrateur",
      "outputs": [],
      "payable": false,
      "stateMutability": "nonpayable",
      "type": "function"
    },
    {
      "constant": false,
      "inputs": [
        {
          "internalType": "string",
          "name": "nv_role",
          "type": "string"
        },
        {
          "internalType": "string",
          "name": "_permission",
          "type": "string"
        }
      ],
      "name": "addRole",
      "outputs": [],
      "payable": false,
      "stateMutability": "nonpayable",
      "type": "function"
    },
    {
      "constant": true,
      "inputs": [
        {
          "internalType": "string",
          "name": "_typerole",
          "type": "string"
        }
      ],
      "name": "getRolePermission",
      "outputs": [
        {
          "internalType": "string",
          "name": "",
          "type": "string"
        }
      ],
      "payable": false,
      "stateMutability": "view",
      "type": "function"
    },
    {
      "constant": true,
      "inputs": [
        {
          "internalType": "string",
          "name": "_typerole",
          "type": "string"
        }
      ],
      "name": "getRoleType",
      "outputs": [
        {
          "internalType": "string",
          "name": "",
          "type": "string"
        }
      ],
      "payable": false,
      "stateMutability": "view",
      "type": "function"
    },
    {
      "constant": true,
      "inputs": [],
      "name": "getAllRole",
      "outputs": [
        {
          "internalType": "string[]",
          "name": "",
          "type": "string[]"
        }
      ],
      "payable": false,
      "stateMutability": "view",
      "type": "function"
    },
    {
      "constant": false,
      "inputs": [
        {
          "internalType": "string",
          "name": "newpassword",
          "type": "string"
        }
      ],
      "name": "changePassword",
      "outputs": [],
      "payable": false,
      "stateMutability": "nonpayable",
      "type": "function"
    },
    {
      "constant": false,
      "inputs": [
        {
          "internalType": "string",
          "name": "newNom",
          "type": "string"
        }
      ],
      "name": "changeNom",
      "outputs": [],
      "payable": false,
      "stateMutability": "nonpayable",
      "type": "function"
    },
    {
      "constant": false,
      "inputs": [
        {
          "internalType": "string",
          "name": "newPrenom",
          "type": "string"
        }
      ],
      "name": "changePrenom",
      "outputs": [],
      "payable": false,
      "stateMutability": "nonpayable",
      "type": "function"
    },
    {
      "constant": false,
      "inputs": [
        {
          "internalType": "string",
          "name": "newEmail",
          "type": "string"
        }
      ],
      "name": "changeEmail",
      "outputs": [],
      "payable": false,
      "stateMutability": "nonpayable",
      "type": "function"
    },
    {
      "constant": false,
      "inputs": [
        {
          "internalType": "uint256",
          "name": "newTel",
          "type": "uint256"
        }
      ],
      "name": "changeTel",
      "outputs": [],
      "payable": false,
      "stateMutability": "nonpayable",
      "type": "function"
    },
    {
      "constant": true,
      "inputs": [],
      "name": "getIdAdmin",
      "outputs": [
        {
          "internalType": "string",
          "name": "",
          "type": "string"
        }
      ],
      "payable": false,
      "stateMutability": "view",
      "type": "function"
    },
    {
      "constant": true,
      "inputs": [],
      "name": "getNomAdmin",
      "outputs": [
        {
          "internalType": "string",
          "name": "",
          "type": "string"
        }
      ],
      "payable": false,
      "stateMutability": "view",
      "type": "function"
    },
    {
      "constant": true,
      "inputs": [],
      "name": "getPrenomAdmin",
      "outputs": [
        {
          "internalType": "string",
          "name": "",
          "type": "string"
        }
      ],
      "payable": false,
      "stateMutability": "view",
      "type": "function"
    },
    {
      "constant": true,
      "inputs": [],
      "name": "getTelephoneAdmin",
      "outputs": [
        {
          "internalType": "uint256",
          "name": "",
          "type": "uint256"
        }
      ],
      "payable": false,
      "stateMutability": "view",
      "type": "function"
    },
    {
      "constant": true,
      "inputs": [],
      "name": "getMailAdmin",
      "outputs": [
        {
          "internalType": "string",
          "name": "",
          "type": "string"
        }
      ],
      "payable": false,
      "stateMutability": "view",
      "type": "function"
    },
    {
      "constant": true,
      "inputs": [],
      "name": "getPasswordMalade",
      "outputs": [
        {
          "internalType": "string",
          "name": "",
          "type": "string"
        }
      ],
      "payable": false,
      "stateMutability": "view",
      "type": "function"
    }
  ],
  "bytecode": "0x608060405234801561001057600080fd5b506111be806100206000396000f3fe608060405234801561001057600080fd5b506004361061010b5760003560e01c8063a3234a15116100a2578063d553357d11610071578063d553357d14610294578063dd517fae146102b0578063e8797d2a146102cc578063eb07d081146102e8578063fa1b7e16146103185761010b565b8063a3234a151461021e578063a80712481461023c578063b10457581461025a578063b11a0bf4146102785761010b565b80636bbb0cc1116100de5780636bbb0cc114610198578063865a18b4146101b45780638921bcbe146101e4578063a0acc3c9146102025761010b565b8063225240b21461011057806328caef031461012e5780634ff9cc511461014c5780636369029914610168575b600080fd5b610118610336565b6040516101259190610ff5565b60405180910390f35b6101366103d8565b6040516101439190610ff5565b60405180910390f35b61016660048036036101619190810190610c4f565b61047a565b005b610182600480360361017d9190810190610c4f565b610494565b60405161018f9190610ff5565b60405180910390f35b6101b260048036036101ad9190810190610dfd565b61055d565b005b6101ce60048036036101c99190810190610c4f565b610567565b6040516101db9190610ff5565b60405180910390f35b6101ec610630565b6040516101f99190610ff5565b60405180910390f35b61021c60048036036102179190810190610c4f565b6106d2565b005b6102266106ec565b6040516102339190611017565b60405180910390f35b6102446106f6565b6040516102519190610ff5565b60405180910390f35b610262610798565b60405161026f9190610ff5565b60405180910390f35b610292600480360361028d9190810190610cfc565b61083a565b005b6102ae60048036036102a99190810190610c4f565b6108bc565b005b6102ca60048036036102c59190810190610c90565b6108d6565b005b6102e660048036036102e19190810190610c4f565b610985565b005b61030260048036036102fd9190810190610dfd565b61099f565b60405161030f9190610fd3565b60405180910390f35b610320610a58565b60405161032d9190610fb1565b60405180910390f35b606060018054600181600116156101000203166002900480601f0160208091040260200160405190810160405280929190818152602001828054600181600116156101000203166002900480156103ce5780601f106103a3576101008083540402835291602001916103ce565b820191906000526020600020905b8154815290600101906020018083116103b157829003601f168201915b5050505050905090565b606060008054600181600116156101000203166002900480601f0160208091040260200160405190810160405280929190818152602001828054600181600116156101000203166002900480156104705780601f1061044557610100808354040283529160200191610470565b820191906000526020600020905b81548152906001019060200180831161045357829003601f168201915b5050505050905090565b8060059080519060200190610490929190610b41565b5050565b606060006006836040516104a89190610f9a565b90815260200160405180910390209050806000018054600181600116156101000203166002900480601f0160208091040260200160405190810160405280929190818152602001828054600181600116156101000203166002900480156105505780601f1061052557610100808354040283529160200191610550565b820191906000526020600020905b81548152906001019060200180831161053357829003601f168201915b5050505050915050919050565b8060038190555050565b6060600060068360405161057b9190610f9a565b90815260200160405180910390209050806001018054600181600116156101000203166002900480601f0160208091040260200160405190810160405280929190818152602001828054600181600116156101000203166002900480156106235780601f106105f857610100808354040283529160200191610623565b820191906000526020600020905b81548152906001019060200180831161060657829003601f168201915b5050505050915050919050565b606060028054600181600116156101000203166002900480601f0160208091040260200160405190810160405280929190818152602001828054600181600116156101000203166002900480156106c85780601f1061069d576101008083540402835291602001916106c8565b820191906000526020600020905b8154815290600101906020018083116106ab57829003601f168201915b5050505050905090565b80600290805190602001906106e8929190610b41565b5050565b6000600354905090565b606060058054600181600116156101000203166002900480601f01602080910402602001604051908101604052809291908181526020018280546001816001161561010002031660029004801561078e5780601f106107635761010080835404028352916020019161078e565b820191906000526020600020905b81548152906001019060200180831161077157829003601f168201915b5050505050905090565b606060048054600181600116156101000203166002900480601f0160208091040260200160405190810160405280929190818152602001828054600181600116156101000203166002900480156108305780601f1061080557610100808354040283529160200191610830565b820191906000526020600020905b81548152906001019060200180831161081357829003601f168201915b5050505050905090565b8560009080519060200190610850929190610b41565b508460019080519060200190610867929190610b41565b50836002908051906020019061087e929190610b41565b5082600381905550816004908051906020019061089c929190610b41565b5080600590805190602001906108b3929190610b41565b50505050505050565b80600490805190602001906108d2929190610b41565b5050565b816006836040516108e79190610f9a565b9081526020016040518091039020600001908051906020019061090b929190610b41565b508060068360405161091d9190610f9a565b90815260200160405180910390206001019080519060200190610941929190610b41565b50600782908060018154018082558091505090600182039060005260206000200160009091929091909150908051906020019061097f929190610b41565b50505050565b806001908051906020019061099b929190610b41565b5050565b600781815481106109ac57fe5b906000526020600020016000915090508054600181600116156101000203166002900480601f016020809104026020016040519081016040528092919081815260200182805460018160011615610100020316600290048015610a505780601f10610a2557610100808354040283529160200191610a50565b820191906000526020600020905b815481529060010190602001808311610a3357829003601f168201915b505050505081565b60606007805480602002602001604051908101604052809291908181526020016000905b82821015610b38578382906000526020600020018054600181600116156101000203166002900480601f016020809104026020016040519081016040528092919081815260200182805460018160011615610100020316600290048015610b245780601f10610af957610100808354040283529160200191610b24565b820191906000526020600020905b815481529060010190602001808311610b0757829003601f168201915b505050505081526020019060010190610a7c565b50505050905090565b828054600181600116156101000203166002900490600052602060002090601f016020900481019282601f10610b8257805160ff1916838001178555610bb0565b82800160010185558215610bb0579182015b82811115610baf578251825591602001919060010190610b94565b5b509050610bbd9190610bc1565b5090565b610be391905b80821115610bdf576000816000905550600101610bc7565b5090565b90565b600082601f830112610bf757600080fd5b8135610c0a610c058261105f565b611032565b91508082526020830160208301858383011115610c2657600080fd5b610c31838284611111565b50505092915050565b600081359050610c4981611164565b92915050565b600060208284031215610c6157600080fd5b600082013567ffffffffffffffff811115610c7b57600080fd5b610c8784828501610be6565b91505092915050565b60008060408385031215610ca357600080fd5b600083013567ffffffffffffffff811115610cbd57600080fd5b610cc985828601610be6565b925050602083013567ffffffffffffffff811115610ce657600080fd5b610cf285828601610be6565b9150509250929050565b60008060008060008060c08789031215610d1557600080fd5b600087013567ffffffffffffffff811115610d2f57600080fd5b610d3b89828a01610be6565b965050602087013567ffffffffffffffff811115610d5857600080fd5b610d6489828a01610be6565b955050604087013567ffffffffffffffff811115610d8157600080fd5b610d8d89828a01610be6565b9450506060610d9e89828a01610c3a565b935050608087013567ffffffffffffffff811115610dbb57600080fd5b610dc789828a01610be6565b92505060a087013567ffffffffffffffff811115610de457600080fd5b610df089828a01610be6565b9150509295509295509295565b600060208284031215610e0f57600080fd5b6000610e1d84828501610c3a565b91505092915050565b6000610e328383610f19565b905092915050565b6000610e458261109b565b610e4f81856110c9565b935083602082028501610e618561108b565b8060005b85811015610e9d5784840389528151610e7e8582610e26565b9450610e89836110bc565b925060208a01995050600181019050610e65565b50829750879550505050505092915050565b6000610eba826110b1565b610ec481856110eb565b9350610ed4818560208601611120565b610edd81611153565b840191505092915050565b6000610ef3826110b1565b610efd81856110fc565b9350610f0d818560208601611120565b80840191505092915050565b6000610f24826110a6565b610f2e81856110da565b9350610f3e818560208601611120565b610f4781611153565b840191505092915050565b6000610f5d826110a6565b610f6781856110eb565b9350610f77818560208601611120565b610f8081611153565b840191505092915050565b610f9481611107565b82525050565b6000610fa68284610ee8565b915081905092915050565b60006020820190508181036000830152610fcb8184610e3a565b905092915050565b60006020820190508181036000830152610fed8184610f52565b905092915050565b6000602082019050818103600083015261100f8184610eaf565b905092915050565b600060208201905061102c6000830184610f8b565b92915050565b6000604051905081810181811067ffffffffffffffff8211171561105557600080fd5b8060405250919050565b600067ffffffffffffffff82111561107657600080fd5b601f19601f8301169050602081019050919050565b6000819050602082019050919050565b600081519050919050565b600081519050919050565b600081519050919050565b6000602082019050919050565b600082825260208201905092915050565b600082825260208201905092915050565b600082825260208201905092915050565b600081905092915050565b6000819050919050565b82818337600083830152505050565b60005b8381101561113e578082015181840152602081019050611123565b8381111561114d576000848401525b50505050565b6000601f19601f8301169050919050565b61116d81611107565b811461117857600080fd5b5056fea365627a7a7231582088727fc40e34c2bd6f6b828b9a65d1753ed155c832c981d11bc59b4bf72c32ac6c6578706572696d656e74616cf564736f6c63430005100040",
  "source": "// SPDX-License-Identifier: MIT\n\npragma solidity >=0.4.21 <0.7.0;\npragma experimental ABIEncoderV2;\n\n\ncontract Administrateur {\n\n    string idAdmin;\n    string nomAdmin;\n    string prenomAdmin;\n    uint256 numeroTel;\n    string mailAdmin;\n    string password;\n\n    //declaration de structure pour les roles\n    struct role_Struct {\n        string typeRole;\n        string permission;\n    }\n    mapping(string => role_Struct) Role;\n\n    string[] public listRole;\n\n\n    function initAdministrateur(\n        string memory _idAdmin,\n        string memory _nomAdmin,\n        string memory _prenomAdmin,\n        uint256 _numeroTel,\n        string memory _mailAdmin,\n        string memory _password\n    ) public {\n        idAdmin = _idAdmin;\n        nomAdmin = _nomAdmin;\n        prenomAdmin = _prenomAdmin;\n        numeroTel = _numeroTel;\n        mailAdmin = _mailAdmin;\n        password = _password;\n    }\n\n    function addRole(string memory nv_role, string memory _permission) public {\n\n        Role[nv_role].typeRole = nv_role;\n        Role[nv_role].permission = _permission;\n\n        listRole.push(nv_role);\n    }\n\n    function getRolePermission(string memory _typerole)\n        public\n        view\n        returns (string memory)\n    {\n        //cree une celle (struct) pour contenir le role stoqué dans la blockchain\n        role_Struct storage tmp = Role[_typerole];\n\n        return tmp.permission;\n    }\n\n    function getRoleType(string memory _typerole)\n        public\n        view\n        returns (string memory)\n    {\n        //cree une celle (struct) pour contenir le role stoqué dans la blockchain\n        role_Struct storage tmp = Role[_typerole];\n\n        return tmp.typeRole;\n    }\n\n    function getAllRole() public view returns (string[] memory) {\n            return listRole;\n    }\n     function changePassword(string memory newpassword) public    {\n        //récupéré les nom de roles contenu dans le tableau listRole\n        password = newpassword;\n    }\n\n    function changeNom(string memory newNom) public    {\n        //récupéré les nom de roles contenu dans le tableau listRole\n        nomAdmin = newNom;\n    }\n\n    function changePrenom(string memory newPrenom) public    {\n        //récupéré les nom de roles contenu dans le tableau listRole\n        prenomAdmin = newPrenom;\n    }\n\n    function changeEmail(string memory newEmail) public    {\n        //récupéré les nom de roles contenu dans le tableau listRole\n        mailAdmin = newEmail;\n    }\n\n    function changeTel(uint256 newTel) public    {\n        //récupéré les nom de roles contenu dans le tableau listRole\n        numeroTel = newTel;\n    }\n    function getIdAdmin( ) public view returns (string memory)\n    {\n        return idAdmin;\n    }\n\n    function getNomAdmin() public view returns (string memory)\n    {\n        return nomAdmin;\n    }\n\n    function getPrenomAdmin( ) public view returns (string memory)\n    {\n        return prenomAdmin;\n    }\n\n\n    function getTelephoneAdmin( ) public view returns (uint256)\n    {\n        return numeroTel;\n    }\n\n\n    function getMailAdmin() public view returns (string memory)\n    {\n        return mailAdmin;\n    }\n\n     function getPasswordMalade() public view returns (string memory)\n    {\n        return password;\n    }\n}\n",
  "sourcePath": "C:\\Users\\Abdelillah\\Desktop\\Ganache 1010\\Esante\\contracts\\Administrateur.sol",
  "compiler": {
    "name": "solc",
    "version": "0.5.16+commit.9c3226ce.Emscripten.clang"
  },
  "schemaVersion": "3.2.1",
  "updatedAt": "2020-08-30T15:21:32.458Z",
  "networkType": "ethereum",
  "devdoc": {
    "methods": {}
  },
  "userdoc": {
    "methods": {}
  }
}