{
  "contractName": "Malade",
  "abi": [
    {
      "constant": true,
      "inputs": [],
      "name": "currentEmail",
      "outputs": [
        {
          "internalType": "string",
          "name": "",
          "type": "string"
        }
      ],
      "payable": false,
      "stateMutability": "view",
      "type": "function"
    },
    {
      "constant": true,
      "inputs": [
        {
          "internalType": "uint256",
          "name": "",
          "type": "uint256"
        }
      ],
      "name": "listMalade",
      "outputs": [
        {
          "internalType": "uint256",
          "name": "",
          "type": "uint256"
        }
      ],
      "payable": false,
      "stateMutability": "view",
      "type": "function"
    },
    {
      "constant": true,
      "inputs": [],
      "name": "nombreMalade",
      "outputs": [
        {
          "internalType": "uint256",
          "name": "",
          "type": "uint256"
        }
      ],
      "payable": false,
      "stateMutability": "view",
      "type": "function"
    },
    {
      "constant": false,
      "inputs": [
        {
          "internalType": "string",
          "name": "_nomMalade",
          "type": "string"
        },
        {
          "internalType": "string",
          "name": "_prenomMalade",
          "type": "string"
        },
        {
          "internalType": "string",
          "name": "_addressMalade",
          "type": "string"
        },
        {
          "internalType": "string",
          "name": "_sexeMalade",
          "type": "string"
        },
        {
          "internalType": "uint256",
          "name": "_telephoneMalade",
          "type": "uint256"
        },
        {
          "internalType": "string",
          "name": "_mailMalade",
          "type": "string"
        },
        {
          "internalType": "string",
          "name": "_passwordMalade",
          "type": "string"
        },
        {
          "internalType": "address",
          "name": "_createur",
          "type": "address"
        }
      ],
      "name": "setNewMalade",
      "outputs": [],
      "payable": false,
      "stateMutability": "nonpayable",
      "type": "function"
    },
    {
      "constant": false,
      "inputs": [
        {
          "internalType": "string",
          "name": "_mailMalade",
          "type": "string"
        },
        {
          "internalType": "address",
          "name": "adFonctionnaire",
          "type": "address"
        }
      ],
      "name": "AddNewAcces",
      "outputs": [],
      "payable": false,
      "stateMutability": "nonpayable",
      "type": "function"
    },
    {
      "constant": true,
      "inputs": [
        {
          "internalType": "string",
          "name": "_mailMalade",
          "type": "string"
        }
      ],
      "name": "getPersonneOntAcces",
      "outputs": [
        {
          "internalType": "address[]",
          "name": "",
          "type": "address[]"
        }
      ],
      "payable": false,
      "stateMutability": "view",
      "type": "function"
    },
    {
      "constant": true,
      "inputs": [
        {
          "internalType": "address",
          "name": "addressPersonnel",
          "type": "address"
        }
      ],
      "name": "getIdMaladeWhoPersonnelHaveAccess",
      "outputs": [
        {
          "internalType": "string[]",
          "name": "",
          "type": "string[]"
        }
      ],
      "payable": false,
      "stateMutability": "view",
      "type": "function"
    },
    {
      "constant": true,
      "inputs": [],
      "name": "getNombreMalade",
      "outputs": [
        {
          "internalType": "uint256",
          "name": "",
          "type": "uint256"
        }
      ],
      "payable": false,
      "stateMutability": "view",
      "type": "function"
    },
    {
      "constant": true,
      "inputs": [],
      "name": "getAllid",
      "outputs": [
        {
          "internalType": "uint256[]",
          "name": "",
          "type": "uint256[]"
        }
      ],
      "payable": false,
      "stateMutability": "view",
      "type": "function"
    },
    {
      "constant": true,
      "inputs": [
        {
          "internalType": "string",
          "name": "_mailMalade",
          "type": "string"
        }
      ],
      "name": "getNomMalade",
      "outputs": [
        {
          "internalType": "string",
          "name": "",
          "type": "string"
        }
      ],
      "payable": false,
      "stateMutability": "view",
      "type": "function"
    },
    {
      "constant": false,
      "inputs": [
        {
          "internalType": "string",
          "name": "_mailMalade",
          "type": "string"
        },
        {
          "internalType": "string",
          "name": "newNom",
          "type": "string"
        }
      ],
      "name": "setNomMalade",
      "outputs": [
        {
          "internalType": "string",
          "name": "",
          "type": "string"
        }
      ],
      "payable": false,
      "stateMutability": "nonpayable",
      "type": "function"
    },
    {
      "constant": true,
      "inputs": [
        {
          "internalType": "string",
          "name": "_mailMalade",
          "type": "string"
        }
      ],
      "name": "getPrenomMalade",
      "outputs": [
        {
          "internalType": "string",
          "name": "",
          "type": "string"
        }
      ],
      "payable": false,
      "stateMutability": "view",
      "type": "function"
    },
    {
      "constant": false,
      "inputs": [
        {
          "internalType": "string",
          "name": "_mailMalade",
          "type": "string"
        },
        {
          "internalType": "string",
          "name": "newPrenom",
          "type": "string"
        }
      ],
      "name": "setPrenomMalade",
      "outputs": [
        {
          "internalType": "string",
          "name": "",
          "type": "string"
        }
      ],
      "payable": false,
      "stateMutability": "nonpayable",
      "type": "function"
    },
    {
      "constant": true,
      "inputs": [
        {
          "internalType": "string",
          "name": "_mailMalade",
          "type": "string"
        }
      ],
      "name": "getTelephoneMalade",
      "outputs": [
        {
          "internalType": "uint256",
          "name": "",
          "type": "uint256"
        }
      ],
      "payable": false,
      "stateMutability": "view",
      "type": "function"
    },
    {
      "constant": false,
      "inputs": [
        {
          "internalType": "string",
          "name": "_mailMalade",
          "type": "string"
        },
        {
          "internalType": "uint256",
          "name": "newTel",
          "type": "uint256"
        }
      ],
      "name": "setTelephoneMalade",
      "outputs": [
        {
          "internalType": "uint256",
          "name": "",
          "type": "uint256"
        }
      ],
      "payable": false,
      "stateMutability": "nonpayable",
      "type": "function"
    },
    {
      "constant": true,
      "inputs": [
        {
          "internalType": "string",
          "name": "_mailMalade",
          "type": "string"
        }
      ],
      "name": "getAddressMalade",
      "outputs": [
        {
          "internalType": "string",
          "name": "",
          "type": "string"
        }
      ],
      "payable": false,
      "stateMutability": "view",
      "type": "function"
    },
    {
      "constant": false,
      "inputs": [
        {
          "internalType": "string",
          "name": "_mailMalade",
          "type": "string"
        },
        {
          "internalType": "string",
          "name": "newAddress",
          "type": "string"
        }
      ],
      "name": "setAddressMalade",
      "outputs": [
        {
          "internalType": "string",
          "name": "",
          "type": "string"
        }
      ],
      "payable": false,
      "stateMutability": "nonpayable",
      "type": "function"
    },
    {
      "constant": true,
      "inputs": [
        {
          "internalType": "string",
          "name": "_mailMalade",
          "type": "string"
        }
      ],
      "name": "getMailMalade",
      "outputs": [
        {
          "internalType": "string",
          "name": "",
          "type": "string"
        }
      ],
      "payable": false,
      "stateMutability": "view",
      "type": "function"
    },
    {
      "constant": true,
      "inputs": [
        {
          "internalType": "uint256",
          "name": "idMalade",
          "type": "uint256"
        }
      ],
      "name": "getMailById",
      "outputs": [
        {
          "internalType": "string",
          "name": "",
          "type": "string"
        }
      ],
      "payable": false,
      "stateMutability": "view",
      "type": "function"
    },
    {
      "constant": false,
      "inputs": [
        {
          "internalType": "string",
          "name": "_mailMalade",
          "type": "string"
        },
        {
          "internalType": "string",
          "name": "newMail",
          "type": "string"
        }
      ],
      "name": "setMailMalade",
      "outputs": [
        {
          "internalType": "string",
          "name": "",
          "type": "string"
        }
      ],
      "payable": false,
      "stateMutability": "nonpayable",
      "type": "function"
    },
    {
      "constant": true,
      "inputs": [
        {
          "internalType": "string",
          "name": "_mailMalade",
          "type": "string"
        }
      ],
      "name": "getPasswordMalade",
      "outputs": [
        {
          "internalType": "string",
          "name": "",
          "type": "string"
        }
      ],
      "payable": false,
      "stateMutability": "view",
      "type": "function"
    },
    {
      "constant": false,
      "inputs": [
        {
          "internalType": "string",
          "name": "_mailMalade",
          "type": "string"
        },
        {
          "internalType": "string",
          "name": "newPassword",
          "type": "string"
        }
      ],
      "name": "setPasswordMalade",
      "outputs": [
        {
          "internalType": "string",
          "name": "",
          "type": "string"
        }
      ],
      "payable": false,
      "stateMutability": "nonpayable",
      "type": "function"
    }
  ],
  "bytecode": "0x608060405234801561001057600080fd5b50612074806100206000396000f3fe608060405234801561001057600080fd5b50600436106101425760003560e01c806367bb0679116100b8578063a8c477531161007c578063a8c47753146103e9578063c2ecd96a14610419578063d52cccf414610449578063d5ee1ed314610467578063e2cba60814610497578063fca8c4db146104c757610142565b806367bb06791461031f578063685d99ef1461034f578063822a89451461037f5780638b99f3241461039b5780638da075bc146103b957610142565b80634bd27b131161010a5780634bd27b131461022557806354aa43b91461024357806358c976f8146102735780635b31e1581461028f57806363e80120146102bf5780636566fa3b146102ef57610142565b806313d72b3a146101475780633736f880146101775780633b9f0c81146101955780633d25f5bd146101c55780634841741f146101f5575b600080fd5b610161600480360361015c9190810190611813565b6104f7565b60405161016e9190611d68565b60405180910390f35b61017f6105c7565b60405161018c9190611dac565b60405180910390f35b6101af60048036036101aa91908101906118a8565b61061f565b6040516101bc9190611df0565b60405180910390f35b6101df60048036036101da91908101906118a8565b61071e565b6040516101ec9190611df0565b60405180910390f35b61020f600480360361020a9190810190611813565b61081d565b60405161021c9190611df0565b60405180910390f35b61022d6108e5565b60405161023a9190611dce565b60405180910390f35b61025d600480360361025891908101906118a8565b610983565b60405161026a9190611df0565b60405180910390f35b61028d60048036036102889190810190611914565b610a82565b005b6102a960048036036102a491908101906118a8565b610d64565b6040516102b69190611df0565b60405180910390f35b6102d960048036036102d49190810190611813565b610e63565b6040516102e69190611df0565b60405180910390f35b610309600480360361030491908101906117ea565b610f2b565b6040516103169190611d8a565b60405180910390f35b610339600480360361033491908101906118a8565b61113c565b6040516103469190611df0565b60405180910390f35b61036960048036036103649190810190611813565b61123b565b6040516103769190611e12565b60405180910390f35b61039960048036036103949190810190611854565b61126b565b005b6103a361130f565b6040516103b09190611e12565b60405180910390f35b6103d360048036036103ce9190810190611aaa565b611319565b6040516103e09190611e12565b60405180910390f35b61040360048036036103fe9190810190611a56565b61133a565b6040516104109190611e12565b60405180910390f35b610433600480360361042e9190810190611813565b611391565b6040516104409190611df0565b60405180910390f35b610451611459565b60405161045e9190611e12565b60405180910390f35b610481600480360361047c9190810190611813565b61145f565b60405161048e9190611df0565b60405180910390f35b6104b160048036036104ac9190810190611aaa565b611527565b6040516104be9190611df0565b60405180910390f35b6104e160048036036104dc9190810190611813565b6115e5565b6040516104ee9190611df0565b60405180910390f35b60606000808360405161050a9190611d51565b90815260200160405180910390209050600060016000836000015481526020019081526020016000209050806001018054806020026020016040519081016040528092919081815260200182805480156105b957602002820191906000526020600020905b8160009054906101000a900473ffffffffffffffffffffffffffffffffffffffff1673ffffffffffffffffffffffffffffffffffffffff168152602001906001019080831161056f575b505050505092505050919050565b6060600280548060200260200160405190810160405280929190818152602001828054801561061557602002820191906000526020600020905b815481526020019060010190808311610601575b5050505050905090565b6060816000846040516106329190611d51565b908152602001604051809103902060060190805190602001906106569291906116ad565b50600080846040516106689190611d51565b90815260200160405180910390209050806006018054600181600116156101000203166002900480601f0160208091040260200160405190810160405280929190818152602001828054600181600116156101000203166002900480156107105780601f106106e557610100808354040283529160200191610710565b820191906000526020600020905b8154815290600101906020018083116106f357829003601f168201915b505050505091505092915050565b6060816000846040516107319190611d51565b908152602001604051809103902060030190805190602001906107559291906116ad565b50600080846040516107679190611d51565b90815260200160405180910390209050806003018054600181600116156101000203166002900480601f01602080910402602001604051908101604052809291908181526020018280546001816001161561010002031660029004801561080f5780601f106107e45761010080835404028352916020019161080f565b820191906000526020600020905b8154815290600101906020018083116107f257829003601f168201915b505050505091505092915050565b6060600080836040516108309190611d51565b90815260200160405180910390209050806006018054600181600116156101000203166002900480601f0160208091040260200160405190810160405280929190818152602001828054600181600116156101000203166002900480156108d85780601f106108ad576101008083540402835291602001916108d8565b820191906000526020600020905b8154815290600101906020018083116108bb57829003601f168201915b5050505050915050919050565b60048054600181600116156101000203166002900480601f01602080910402602001604051908101604052809291908181526020018280546001816001161561010002031660029004801561097b5780601f106109505761010080835404028352916020019161097b565b820191906000526020600020905b81548152906001019060200180831161095e57829003601f168201915b505050505081565b6060816000846040516109969190611d51565b908152602001604051809103902060050190805190602001906109ba9291906116ad565b50600080846040516109cc9190611d51565b90815260200160405180910390209050806005018054600181600116156101000203166002900480601f016020809104026020016040519081016040528092919081815260200182805460018160011615610100020316600290048015610a745780601f10610a4957610100808354040283529160200191610a74565b820191906000526020600020905b815481529060010190602001808311610a5757829003601f168201915b505050505091505092915050565b600160028054905001600381905550600354600084604051610aa49190611d51565b90815260200160405180910390206000018190555087600084604051610aca9190611d51565b90815260200160405180910390206002019080519060200190610aee9291906116ad565b5086600084604051610b009190611d51565b90815260200160405180910390206003019080519060200190610b249291906116ad565b5084600084604051610b369190611d51565b90815260200160405180910390206004019080519060200190610b5a9291906116ad565b5085600084604051610b6c9190611d51565b90815260200160405180910390206005019080519060200190610b909291906116ad565b5083600084604051610ba29190611d51565b90815260200160405180910390206001018190555082600084604051610bc89190611d51565b90815260200160405180910390206006019080519060200190610bec9291906116ad565b5081600084604051610bfe9190611d51565b90815260200160405180910390206007019080519060200190610c229291906116ad565b5080600084604051610c349190611d51565b908152602001604051809103902060080160006101000a81548173ffffffffffffffffffffffffffffffffffffffff021916908373ffffffffffffffffffffffffffffffffffffffff160217905550826001600060035481526020019081526020016000206000019080519060200190610caf9291906116ad565b506001600060035481526020019081526020016000206001018190806001815401808255809150509060018203906000526020600020016000909192909190916101000a81548173ffffffffffffffffffffffffffffffffffffffff021916908373ffffffffffffffffffffffffffffffffffffffff16021790555050600260035490806001815401808255809150509060018203906000526020600020016000909192909190915055505050505050505050565b606081600084604051610d779190611d51565b90815260200160405180910390206007019080519060200190610d9b9291906116ad565b5060008084604051610dad9190611d51565b90815260200160405180910390209050806007018054600181600116156101000203166002900480601f016020809104026020016040519081016040528092919081815260200182805460018160011615610100020316600290048015610e555780601f10610e2a57610100808354040283529160200191610e55565b820191906000526020600020905b815481529060010190602001808311610e3857829003601f168201915b505050505091505092915050565b606060008083604051610e769190611d51565b90815260200160405180910390209050806005018054600181600116156101000203166002900480601f016020809104026020016040519081016040528092919081815260200182805460018160011615610100020316600290048015610f1e5780601f10610ef357610100808354040283529160200191610f1e565b820191906000526020600020905b815481529060010190602001808311610f0157829003601f168201915b5050505050915050919050565b6060610f3561172d565b606060008090505b6003548110156111315760016000828152602001908152602001600020604051806040016040529081600082018054600181600116156101000203166002900480601f016020809104026020016040519081016040528092919081815260200182805460018160011615610100020316600290048015610ffe5780601f10610fd357610100808354040283529160200191610ffe565b820191906000526020600020905b815481529060010190602001808311610fe157829003601f168201915b505050505081526020016001820180548060200260200160405190810160405280929190818152602001828054801561108c57602002820191906000526020600020905b8160009054906101000a900473ffffffffffffffffffffffffffffffffffffffff1673ffffffffffffffffffffffffffffffffffffffff1681526020019060010190808311611042575b505050505081525050925060008090505b836020015151811015611123578573ffffffffffffffffffffffffffffffffffffffff16846020015182815181106110d157fe5b602002602001015173ffffffffffffffffffffffffffffffffffffffff1614156111165783600001518360018551018151811061110a57fe5b60200260200101819052505b808060010191505061109d565b508080600101915050610f3d565b508092505050919050565b60608160008460405161114f9190611d51565b908152602001604051809103902060020190805190602001906111739291906116ad565b50600080846040516111859190611d51565b90815260200160405180910390209050806002018054600181600116156101000203166002900480601f01602080910402602001604051908101604052809291908181526020018280546001816001161561010002031660029004801561122d5780601f106112025761010080835404028352916020019161122d565b820191906000526020600020905b81548152906001019060200180831161121057829003601f168201915b505050505091505092915050565b60008060008360405161124e9190611d51565b908152602001604051809103902090508060010154915050919050565b6000808360405161127c9190611d51565b9081526020016040518091039020905060016000826000015481526020019081526020016000206001018290806001815401808255809150509060018203906000526020600020016000909192909190916101000a81548173ffffffffffffffffffffffffffffffffffffffff021916908373ffffffffffffffffffffffffffffffffffffffff16021790555050505050565b6000600354905090565b6002818154811061132657fe5b906000526020600020016000915090505481565b60008160008460405161134d9190611d51565b908152602001604051809103902060010181905550600080846040516113739190611d51565b90815260200160405180910390209050806001015491505092915050565b6060600080836040516113a49190611d51565b90815260200160405180910390209050806007018054600181600116156101000203166002900480601f01602080910402602001604051908101604052809291908181526020018280546001816001161561010002031660029004801561144c5780601f106114215761010080835404028352916020019161144c565b820191906000526020600020905b81548152906001019060200180831161142f57829003601f168201915b5050505050915050919050565b60035481565b6060600080836040516114729190611d51565b90815260200160405180910390209050806002018054600181600116156101000203166002900480601f01602080910402602001604051908101604052809291908181526020018280546001816001161561010002031660029004801561151a5780601f106114ef5761010080835404028352916020019161151a565b820191906000526020600020905b8154815290600101906020018083116114fd57829003601f168201915b5050505050915050919050565b60606000600160008481526020019081526020016000209050806000018054600181600116156101000203166002900480601f0160208091040260200160405190810160405280929190818152602001828054600181600116156101000203166002900480156115d85780601f106115ad576101008083540402835291602001916115d8565b820191906000526020600020905b8154815290600101906020018083116115bb57829003601f168201915b5050505050915050919050565b6060600080836040516115f89190611d51565b90815260200160405180910390209050806003018054600181600116156101000203166002900480601f0160208091040260200160405190810160405280929190818152602001828054600181600116156101000203166002900480156116a05780601f10611675576101008083540402835291602001916116a0565b820191906000526020600020905b81548152906001019060200180831161168357829003601f168201915b5050505050915050919050565b828054600181600116156101000203166002900490600052602060002090601f016020900481019282601f106116ee57805160ff191683800117855561171c565b8280016001018555821561171c579182015b8281111561171b578251825591602001919060010190611700565b5b5090506117299190611747565b5090565b604051806040016040528060608152602001606081525090565b61176991905b8082111561176557600081600090555060010161174d565b5090565b90565b60008135905061177b81612003565b92915050565b600082601f83011261179257600080fd5b81356117a56117a082611e5a565b611e2d565b915080825260208301602083018583830111156117c157600080fd5b6117cc838284611fb0565b50505092915050565b6000813590506117e48161201a565b92915050565b6000602082840312156117fc57600080fd5b600061180a8482850161176c565b91505092915050565b60006020828403121561182557600080fd5b600082013567ffffffffffffffff81111561183f57600080fd5b61184b84828501611781565b91505092915050565b6000806040838503121561186757600080fd5b600083013567ffffffffffffffff81111561188157600080fd5b61188d85828601611781565b925050602061189e8582860161176c565b9150509250929050565b600080604083850312156118bb57600080fd5b600083013567ffffffffffffffff8111156118d557600080fd5b6118e185828601611781565b925050602083013567ffffffffffffffff8111156118fe57600080fd5b61190a85828601611781565b9150509250929050565b600080600080600080600080610100898b03121561193157600080fd5b600089013567ffffffffffffffff81111561194b57600080fd5b6119578b828c01611781565b985050602089013567ffffffffffffffff81111561197457600080fd5b6119808b828c01611781565b975050604089013567ffffffffffffffff81111561199d57600080fd5b6119a98b828c01611781565b965050606089013567ffffffffffffffff8111156119c657600080fd5b6119d28b828c01611781565b95505060806119e38b828c016117d5565b94505060a089013567ffffffffffffffff811115611a0057600080fd5b611a0c8b828c01611781565b93505060c089013567ffffffffffffffff811115611a2957600080fd5b611a358b828c01611781565b92505060e0611a468b828c0161176c565b9150509295985092959890939650565b60008060408385031215611a6957600080fd5b600083013567ffffffffffffffff811115611a8357600080fd5b611a8f85828601611781565b9250506020611aa0858286016117d5565b9150509250929050565b600060208284031215611abc57600080fd5b6000611aca848285016117d5565b91505092915050565b6000611adf8383611b17565b60208301905092915050565b6000611af78383611cc1565b905092915050565b6000611b0b8383611d33565b60208301905092915050565b611b2081611f74565b82525050565b6000611b3182611eb6565b611b3b8185611f14565b9350611b4683611e86565b8060005b83811015611b77578151611b5e8882611ad3565b9750611b6983611eed565b925050600181019050611b4a565b5085935050505092915050565b6000611b8f82611ec1565b611b998185611f25565b935083602082028501611bab85611e96565b8060005b85811015611be75784840389528151611bc88582611aeb565b9450611bd383611efa565b925060208a01995050600181019050611baf565b50829750879550505050505092915050565b6000611c0482611ecc565b611c0e8185611f36565b9350611c1983611ea6565b8060005b83811015611c4a578151611c318882611aff565b9750611c3c83611f07565b925050600181019050611c1d565b5085935050505092915050565b6000611c6282611ee2565b611c6c8185611f58565b9350611c7c818560208601611fbf565b611c8581611ff2565b840191505092915050565b6000611c9b82611ee2565b611ca58185611f69565b9350611cb5818560208601611fbf565b80840191505092915050565b6000611ccc82611ed7565b611cd68185611f47565b9350611ce6818560208601611fbf565b611cef81611ff2565b840191505092915050565b6000611d0582611ed7565b611d0f8185611f58565b9350611d1f818560208601611fbf565b611d2881611ff2565b840191505092915050565b611d3c81611fa6565b82525050565b611d4b81611fa6565b82525050565b6000611d5d8284611c90565b915081905092915050565b60006020820190508181036000830152611d828184611b26565b905092915050565b60006020820190508181036000830152611da48184611b84565b905092915050565b60006020820190508181036000830152611dc68184611bf9565b905092915050565b60006020820190508181036000830152611de88184611cfa565b905092915050565b60006020820190508181036000830152611e0a8184611c57565b905092915050565b6000602082019050611e276000830184611d42565b92915050565b6000604051905081810181811067ffffffffffffffff82111715611e5057600080fd5b8060405250919050565b600067ffffffffffffffff821115611e7157600080fd5b601f19601f8301169050602081019050919050565b6000819050602082019050919050565b6000819050602082019050919050565b6000819050602082019050919050565b600081519050919050565b600081519050919050565b600081519050919050565b600081519050919050565b600081519050919050565b6000602082019050919050565b6000602082019050919050565b6000602082019050919050565b600082825260208201905092915050565b600082825260208201905092915050565b600082825260208201905092915050565b600082825260208201905092915050565b600082825260208201905092915050565b600081905092915050565b6000611f7f82611f86565b9050919050565b600073ffffffffffffffffffffffffffffffffffffffff82169050919050565b6000819050919050565b82818337600083830152505050565b60005b83811015611fdd578082015181840152602081019050611fc2565b83811115611fec576000848401525b50505050565b6000601f19601f8301169050919050565b61200c81611f74565b811461201757600080fd5b50565b61202381611fa6565b811461202e57600080fd5b5056fea365627a7a72315820a92b07dc5aad1f05c0ac8b864e972bb89b3d617cc4b3816b7204d53da05e034e6c6578706572696d656e74616cf564736f6c63430005100040",
  "source": "\n\n// SPDX-License-Identifier: MIT\n\npragma solidity >=0.4.21 <0.7.0;\npragma experimental ABIEncoderV2;\n\n\ncontract Malade {\n\n    struct block_Malade {\n        uint256 idMalade;\n        uint256 telephoneMalade;\n        string nomMalade;\n        string prenomMalade;\n        string sexeMalade;\n        string addressMalade;\n        string mailMalade;\n        string passwordMalade;\n        address createurMalade;\n    }\n\n    struct liste_access_chaque_Malade{\n\n    string mailMalade;\n    address[] Personnes_on_accees;\n\n    }\n\n\n    mapping(string => block_Malade) Malade_Struct;\n\n    mapping(uint256 => liste_access_chaque_Malade) Access;\n\n    uint256[] public listMalade;\n    uint256 public nombreMalade;\n    string public currentEmail;\n\n\n\n    function setNewMalade(\n        string memory _nomMalade,\n        string memory _prenomMalade,\n        string memory _addressMalade,\n        string memory _sexeMalade,\n        uint256 _telephoneMalade,\n        string memory _mailMalade,\n        string memory _passwordMalade,\n        address _createur\n    ) public {\n\n        nombreMalade = listMalade.length + 1;\n\n        Malade_Struct[_mailMalade].idMalade = nombreMalade;\n        Malade_Struct[_mailMalade].nomMalade = _nomMalade;\n        Malade_Struct[_mailMalade].prenomMalade = _prenomMalade;\n        Malade_Struct[_mailMalade].sexeMalade = _sexeMalade;\n        Malade_Struct[_mailMalade].addressMalade = _addressMalade;\n        Malade_Struct[_mailMalade].telephoneMalade = _telephoneMalade;\n        Malade_Struct[_mailMalade].mailMalade = _mailMalade;\n        Malade_Struct[_mailMalade].passwordMalade = _passwordMalade;\n        Malade_Struct[_mailMalade].createurMalade = _createur;\n\n        Access[nombreMalade].mailMalade = _mailMalade;\n        Access[nombreMalade].Personnes_on_accees.push(_createur);\n\n        listMalade.push(nombreMalade);\n    }\n\n\n\n     function AddNewAcces(string memory _mailMalade,address adFonctionnaire) public{\n        block_Malade storage tmp = Malade_Struct[_mailMalade];\n\n       Access[tmp.idMalade].Personnes_on_accees.push(adFonctionnaire);\n    }\n\n    function getPersonneOntAcces(string memory _mailMalade) public view returns (address[] memory){\n\n       block_Malade storage tmp = Malade_Struct[_mailMalade];\n\n       liste_access_chaque_Malade storage tmpAccess = Access[tmp.idMalade];\n\n        return tmpAccess.Personnes_on_accees;\n    }\n\n\n    //////////************Recuperer la liste des malades qui peut le personnel x l'accde  ************\\\\\\\\\\\\\\\\\\\\\n\n    function getIdMaladeWhoPersonnelHaveAccess(address addressPersonnel) public view returns (string[] memory)\n    {\n        liste_access_chaque_Malade memory tmp;\n        string[] memory  idByAddress;\n\n       for(uint256 i = 0 ; i < nombreMalade ; i++)\n       {\n           tmp = Access[i];\n           for(uint256 j = 0 ; j < tmp.Personnes_on_accees.length ; j++)\n           {\n           if(tmp.Personnes_on_accees[j] == addressPersonnel){\n                 idByAddress[idByAddress.length+1] = tmp.mailMalade;\n           }\n           }\n       }\n\n        return idByAddress;\n    }\n\n\n    function getNombreMalade() public view returns (uint256 ) {\n        return nombreMalade;\n    }\n\n    function getAllid() public view returns (uint256[] memory) {\n        return listMalade;\n    }\n\n    /////////////////////************NOM ************\\\\\\\\\\\\\\\\\\\\\\\\\\\\\\\\\\\\\\\\\\\\\\\\\n\n    function getNomMalade(string memory  _mailMalade)\n        public\n        view\n        returns (string memory)\n    {\n        block_Malade storage tmp = Malade_Struct[_mailMalade];\n        return tmp.nomMalade;\n    }\n\n    function setNomMalade(string memory _mailMalade,string memory newNom)\n        public\n        returns (string memory)\n    {\n        Malade_Struct[_mailMalade].nomMalade = newNom;\n        block_Malade storage tmp = Malade_Struct[_mailMalade];\n\n        return tmp.nomMalade;\n    }\n    /////////////////////////************PRENOM ************\\\\\\\\\\\\\\\\\\\\\\\\\\\\\\\\\\\\\\\\\\\\\\\\\n\n    function getPrenomMalade(string memory _mailMalade)\n        public\n        view\n        returns (string memory)\n    {\n        block_Malade storage tmp = Malade_Struct[_mailMalade];\n        return tmp.prenomMalade;\n    }\n\n\n    function setPrenomMalade(string memory _mailMalade,string memory newPrenom)\n        public\n        returns (string memory)\n    {\n        Malade_Struct[_mailMalade].prenomMalade = newPrenom;\n\n        block_Malade storage tmp = Malade_Struct[_mailMalade];\n        return tmp.prenomMalade;\n    }\n\n    ////////////////////************TELEPHONE ************\\\\\\\\\\\\\\\\\\\\\\\\\\\\\\\\\\\\\\\\\\\\\\\\\\\\\\\n\n    function getTelephoneMalade(string memory _mailMalade)\n        public\n        view\n        returns (uint256)\n    {\n        block_Malade storage tmp = Malade_Struct[_mailMalade];\n        return tmp.telephoneMalade;\n    }\n\n\n    function setTelephoneMalade(string memory _mailMalade,uint256 newTel)\n        public\n        returns (uint256)\n    {\n        Malade_Struct[_mailMalade].telephoneMalade = newTel;\n\n        block_Malade storage tmp = Malade_Struct[_mailMalade];\n        return tmp.telephoneMalade;\n    }\n\n    /////////////////////************ADDRESS ************\\\\\\\\\\\\\\\\\\\\\\\\\\\\\\\\\\\\\\\\\\\\\\\\\\\\\n\n     function getAddressMalade(string memory _mailMalade)\n        public\n        view\n        returns (string memory)\n    {\n        block_Malade storage tmp = Malade_Struct[_mailMalade];\n        return tmp.addressMalade;\n    }\n\n    function setAddressMalade(string memory _mailMalade,string memory newAddress)\n        public\n        returns (string memory)\n    {\n        Malade_Struct[_mailMalade].addressMalade = newAddress;\n\n        block_Malade storage tmp = Malade_Struct[_mailMalade];\n        return tmp.addressMalade;\n    }\n\n    ///////////////////////************EMAIL ************\\\\\\\\\\\\\\\\\\\\\\\\\\\\\\\\\\\\\\\\\\\\\\\\\\\n\n    function getMailMalade(string memory _mailMalade)\n        public\n        view\n        returns (string memory)\n    {\n        block_Malade storage tmp = Malade_Struct[_mailMalade];\n        return tmp.mailMalade;\n    }\n\n    function getMailById(uint256 idMalade)\n        public\n        view\n        returns (string memory)\n    {\n        liste_access_chaque_Malade storage tmp = Access[idMalade];\n        return tmp.mailMalade;\n    }\n\n\n    function setMailMalade(string memory _mailMalade,string memory newMail)\n        public\n        returns (string memory)\n    {\n\n        Malade_Struct[_mailMalade].mailMalade = newMail;\n\n        block_Malade storage tmp = Malade_Struct[_mailMalade];\n        return tmp.mailMalade;\n    }\n\n\n    //////////////////////************PASSWORD ************\\\\\\\\\\\\\\\\\\\\\\\\\\\\\\\\\\\\\\\\\\\\\\\\\\\\\n\n     function getPasswordMalade(string memory _mailMalade)\n        public\n        view\n        returns (string memory)\n    {\n        block_Malade storage tmp = Malade_Struct[_mailMalade];\n        return tmp.passwordMalade;\n    }\n\n    function setPasswordMalade(string memory _mailMalade,string memory newPassword)\n        public\n        returns (string memory)\n    {\n\n        Malade_Struct[_mailMalade].passwordMalade = newPassword;\n\n        block_Malade storage tmp = Malade_Struct[_mailMalade];\n        return tmp.passwordMalade;\n    }\n}\n",
  "sourcePath": "C:\\Users\\Abdelillah\\Desktop\\Ganache 1010\\Esante\\contracts\\Malade.sol",
  "compiler": {
    "name": "solc",
    "version": "0.5.16+commit.9c3226ce.Emscripten.clang"
  },
  "schemaVersion": "3.2.1",
  "updatedAt": "2020-08-30T15:21:33.752Z",
  "networkType": "ethereum",
  "devdoc": {
    "methods": {}
  },
  "userdoc": {
    "methods": {
      "getAddressMalade(string)": {
        "notice": "//////////////////************ADDRESS ************\\\\\\\\\\\\\\\\\\\\\\\\\\\\\\\\\\\\\\\\\\\\\\\\\\\\"
      },
      "getIdMaladeWhoPersonnelHaveAccess(address)": {
        "notice": "///////************Recuperer la liste des malades qui peut le personnel x l'accde  ************\\\\\\\\\\\\\\\\\\\\"
      },
      "getMailMalade(string)": {
        "notice": "////////////////////************EMAIL ************\\\\\\\\\\\\\\\\\\\\\\\\\\\\\\\\\\\\\\\\\\\\\\\\\\"
      },
      "getNomMalade(string)": {
        "notice": "//////////////////************NOM ************\\\\\\\\\\\\\\\\\\\\\\\\\\\\\\\\\\\\\\\\\\\\\\\\"
      },
      "getPasswordMalade(string)": {
        "notice": "///////////////////************PASSWORD ************\\\\\\\\\\\\\\\\\\\\\\\\\\\\\\\\\\\\\\\\\\\\\\\\\\\\"
      },
      "getPrenomMalade(string)": {
        "notice": "//////////////////////************PRENOM ************\\\\\\\\\\\\\\\\\\\\\\\\\\\\\\\\\\\\\\\\\\\\\\\\"
      },
      "getTelephoneMalade(string)": {
        "notice": "/////////////////************TELEPHONE ************\\\\\\\\\\\\\\\\\\\\\\\\\\\\\\\\\\\\\\\\\\\\\\\\\\\\\\"
      }
    }
  }
}